{
  "contractName": "SimpleStorage",
  "abi": [
    {
      "anonymous": false,
      "inputs": [
        {
          "indexed": false,
          "internalType": "string",
          "name": "data",
          "type": "string"
        },
        {
          "indexed": false,
          "internalType": "string",
          "name": "application",
          "type": "string"
        }
      ],
      "name": "ItemAdded",
      "type": "event"
    },
    {
      "inputs": [
        {
          "internalType": "uint256",
          "name": "",
          "type": "uint256"
        }
      ],
      "name": "cartItems",
      "outputs": [
        {
          "internalType": "string",
          "name": "data",
          "type": "string"
        },
        {
          "internalType": "string",
          "name": "application",
          "type": "string"
        }
      ],
      "stateMutability": "view",
      "type": "function",
      "constant": true
    },
    {
      "inputs": [
        {
          "internalType": "string",
          "name": "data",
          "type": "string"
        },
        {
          "internalType": "string",
          "name": "application",
          "type": "string"
        }
      ],
      "name": "addItem",
      "outputs": [],
      "stateMutability": "nonpayable",
      "type": "function"
    },
    {
      "inputs": [],
      "name": "getAllItems",
      "outputs": [
        {
          "components": [
            {
              "internalType": "string",
              "name": "data",
              "type": "string"
            },
            {
              "internalType": "string",
              "name": "application",
              "type": "string"
            }
          ],
          "internalType": "struct SimpleStorage.CartItem[]",
          "name": "",
          "type": "tuple[]"
        }
      ],
      "stateMutability": "view",
      "type": "function",
      "constant": true
    },
    {
      "inputs": [],
      "name": "getItemCount",
      "outputs": [
        {
          "internalType": "uint256",
          "name": "",
          "type": "uint256"
        }
      ],
      "stateMutability": "view",
      "type": "function",
      "constant": true
    }
  ],
  "bytecode": "0x608060405234801561001057600080fd5b50610b52806100206000396000f3fe608060405234801561001057600080fd5b506004361061004c5760003560e01c80634ba1d6aa14610051578063751e58d11461006f5780637749cf23146100a05780637ed8a719146100be575b600080fd5b6100596100da565b604051610066919061089d565b60405180910390f35b61008960048036038101906100849190610680565b61025d565b6040516100979291906108bf565b60405180910390f35b6100a86103a1565b6040516100b59190610936565b60405180910390f35b6100d860048036038101906100d39190610614565b6103ad565b005b60606000805480602002602001604051908101604052809291908181526020016000905b82821015610254578382906000526020600020906002020160405180604001604052908160008201805461013190610a64565b80601f016020809104026020016040519081016040528092919081815260200182805461015d90610a64565b80156101aa5780601f1061017f576101008083540402835291602001916101aa565b820191906000526020600020905b81548152906001019060200180831161018d57829003601f168201915b505050505081526020016001820180546101c390610a64565b80601f01602080910402602001604051908101604052809291908181526020018280546101ef90610a64565b801561023c5780601f106102115761010080835404028352916020019161023c565b820191906000526020600020905b81548152906001019060200180831161021f57829003601f168201915b505050505081525050815260200190600101906100fe565b50505050905090565b6000818154811061026d57600080fd5b906000526020600020906002020160009150905080600001805461029090610a64565b80601f01602080910402602001604051908101604052809291908181526020018280546102bc90610a64565b80156103095780601f106102de57610100808354040283529160200191610309565b820191906000526020600020905b8154815290600101906020018083116102ec57829003601f168201915b50505050509080600101805461031e90610a64565b80601f016020809104026020016040519081016040528092919081815260200182805461034a90610a64565b80156103975780601f1061036c57610100808354040283529160200191610397565b820191906000526020600020905b81548152906001019060200180831161037a57829003601f168201915b5050505050905082565b60008080549050905090565b60008251116103f1576040517f08c379a00000000000000000000000000000000000000000000000000000000081526004016103e890610916565b60405180910390fd5b6000815111610435576040517f08c379a000000000000000000000000000000000000000000000000000000000815260040161042c906108f6565b60405180910390fd5b60006040518060400160405280848152602001838152509050600081908060018154018082558091505060019003906000526020600020906002020160009091909190915060008201518160000190805190602001906104969291906104f4565b5060208201518160010190805190602001906104b39291906104f4565b5050507f329ac61afa05394ca33c3fcfff7c0c70571cdb9ff85a7993d180d348138ac3b383836040516104e79291906108bf565b60405180910390a1505050565b82805461050090610a64565b90600052602060002090601f0160209004810192826105225760008555610569565b82601f1061053b57805160ff1916838001178555610569565b82800160010185558215610569579182015b8281111561056857825182559160200191906001019061054d565b5b509050610576919061057a565b5090565b5b8082111561059357600081600090555060010161057b565b5090565b60006105aa6105a584610982565b610951565b9050828152602081018484840111156105c257600080fd5b6105cd848285610a22565b509392505050565b600082601f8301126105e657600080fd5b81356105f6848260208601610597565b91505092915050565b60008135905061060e81610b05565b92915050565b6000806040838503121561062757600080fd5b600083013567ffffffffffffffff81111561064157600080fd5b61064d858286016105d5565b925050602083013567ffffffffffffffff81111561066a57600080fd5b610676858286016105d5565b9150509250929050565b60006020828403121561069257600080fd5b60006106a0848285016105ff565b91505092915050565b60006106b5838361084a565b905092915050565b60006106c8826109c2565b6106d281856109e5565b9350836020820285016106e4856109b2565b8060005b85811015610720578484038952815161070185826106a9565b945061070c836109d8565b925060208a019950506001810190506106e8565b50829750879550505050505092915050565b600061073d826109cd565b61074781856109f6565b9350610757818560208601610a31565b61076081610af4565b840191505092915050565b6000610776826109cd565b6107808185610a07565b9350610790818560208601610a31565b61079981610af4565b840191505092915050565b60006107b1602383610a07565b91507f4170706c69636174696f6e206669656c64206d757374206e6f7420626520656d60008301527f70747900000000000000000000000000000000000000000000000000000000006020830152604082019050919050565b6000610817601c83610a07565b91507f44617461206669656c64206d757374206e6f7420626520656d707479000000006000830152602082019050919050565b600060408301600083015184820360008601526108678282610732565b915050602083015184820360208601526108818282610732565b9150508091505092915050565b61089781610a18565b82525050565b600060208201905081810360008301526108b781846106bd565b905092915050565b600060408201905081810360008301526108d9818561076b565b905081810360208301526108ed818461076b565b90509392505050565b6000602082019050818103600083015261090f816107a4565b9050919050565b6000602082019050818103600083015261092f8161080a565b9050919050565b600060208201905061094b600083018461088e565b92915050565b6000604051905081810181811067ffffffffffffffff8211171561097857610977610ac5565b5b8060405250919050565b600067ffffffffffffffff82111561099d5761099c610ac5565b5b601f19601f8301169050602081019050919050565b6000819050602082019050919050565b600081519050919050565b600081519050919050565b6000602082019050919050565b600082825260208201905092915050565b600082825260208201905092915050565b600082825260208201905092915050565b6000819050919050565b82818337600083830152505050565b60005b83811015610a4f578082015181840152602081019050610a34565b83811115610a5e576000848401525b50505050565b60006002820490506001821680610a7c57607f821691505b60208210811415610a9057610a8f610a96565b5b50919050565b7f4e487b7100000000000000000000000000000000000000000000000000000000600052602260045260246000fd5b7f4e487b7100000000000000000000000000000000000000000000000000000000600052604160045260246000fd5b6000601f19601f8301169050919050565b610b0e81610a18565b8114610b1957600080fd5b5056fea2646970667358221220d0e4ef6b1ccbf70bf54f33d02c9b87ab86be1d453db2d48ecbd7076d3ba8e60064736f6c63430008000033",
  "immutableReferences": {},
  "source": "// SPDX-License-Identifier: MIT\npragma solidity ^0.8.0;\n\ncontract SimpleStorage {\n    struct CartItem {\n        string data;\n        string application;\n    }\n\n    CartItem[] public cartItems;\n\n    event ItemAdded(string data, string application);\n\n    // Ajoute un nouvel lment dans le tableau cartItems\n    function addItem(string memory data, string memory application) public {\n        require(bytes(data).length > 0, \"Data field must not be empty\");\n        require(bytes(application).length > 0, \"Application field must not be empty\");\n\n        CartItem memory newItem = CartItem(data, application);\n        cartItems.push(newItem);\n\n        emit ItemAdded(data, application);\n    }\n\n    // Permet de rcuprer la liste complte des lments du panier (lecture optimise)\n    function getAllItems() public view returns (CartItem[] memory) {\n        return cartItems;\n    }\n\n    // Compte le nombre total d'lments dans le panier\n    function getItemCount() public view returns (uint256) {\n        return cartItems.length;\n    }\n}",
  "sourcePath": "/home/imane/Documents/projetS9/fournisseur_blockchaine/distributedcloudmarketplace/my-truffle-project/contracts/SimpleStorage.sol",
  "compiler": {
    "name": "solc",
    "version": "0.8.0+commit.c7dfd78e.Emscripten.clang"
  },
  "schemaVersion": "3.4.16",
  "updatedAt": "2024-12-04T10:26:45.629Z",
  "networkType": "ethereum",
  "devdoc": {
    "kind": "dev",
    "methods": {},
    "version": 1
  },
  "userdoc": {
    "kind": "user",
    "methods": {},
    "version": 1
  }
}